{
  "contractName": "TeamWallet",
  "abi": [
    {
      "constant": false,
      "inputs": [
        {
          "name": "ownerAddress",
          "type": "address"
        }
      ],
      "name": "removePlayerWallet",
      "outputs": [
        {
          "name": "",
          "type": "bool"
        }
      ],
      "payable": false,
      "stateMutability": "nonpayable",
      "type": "function"
    },
    {
      "constant": false,
      "inputs": [
        {
          "name": "newOwner",
          "type": "address"
        }
      ],
      "name": "moveOwnership",
      "outputs": [
        {
          "name": "",
          "type": "bool"
        }
      ],
      "payable": false,
      "stateMutability": "nonpayable",
      "type": "function"
    },
    {
      "constant": true,
      "inputs": [],
      "name": "teamName",
      "outputs": [
        {
          "name": "",
          "type": "string"
        }
      ],
      "payable": false,
      "stateMutability": "view",
      "type": "function"
    },
    {
      "constant": false,
      "inputs": [
        {
          "name": "newName",
          "type": "string"
        }
      ],
      "name": "updateName",
      "outputs": [
        {
          "name": "",
          "type": "bool"
        }
      ],
      "payable": false,
      "stateMutability": "nonpayable",
      "type": "function"
    },
    {
      "constant": true,
      "inputs": [
        {
          "name": "ownerAddress",
          "type": "address"
        }
      ],
      "name": "playerWalletName",
      "outputs": [
        {
          "name": "",
          "type": "string"
        }
      ],
      "payable": false,
      "stateMutability": "view",
      "type": "function"
    },
    {
      "constant": true,
      "inputs": [],
      "name": "owner",
      "outputs": [
        {
          "name": "",
          "type": "address"
        }
      ],
      "payable": false,
      "stateMutability": "view",
      "type": "function"
    },
    {
      "constant": false,
      "inputs": [
        {
          "name": "playerName",
          "type": "bytes32"
        },
        {
          "name": "ownerAddress",
          "type": "address"
        }
      ],
      "name": "addPlayerWallet",
      "outputs": [
        {
          "name": "",
          "type": "address"
        }
      ],
      "payable": false,
      "stateMutability": "nonpayable",
      "type": "function"
    },
    {
      "constant": false,
      "inputs": [
        {
          "name": "ownerAddress",
          "type": "address"
        },
        {
          "name": "amount",
          "type": "uint256"
        }
      ],
      "name": "transferToPlayerWallet",
      "outputs": [
        {
          "name": "",
          "type": "bool"
        }
      ],
      "payable": false,
      "stateMutability": "nonpayable",
      "type": "function"
    },
    {
      "constant": true,
      "inputs": [
        {
          "name": "",
          "type": "address"
        }
      ],
      "name": "playerWallets",
      "outputs": [
        {
          "name": "",
          "type": "address"
        }
      ],
      "payable": false,
      "stateMutability": "view",
      "type": "function"
    },
    {
      "inputs": [
        {
          "name": "_teamName",
          "type": "string"
        }
      ],
      "payable": true,
      "stateMutability": "payable",
      "type": "constructor"
    },
    {
      "payable": true,
      "stateMutability": "payable",
      "type": "fallback"
    },
    {
      "anonymous": false,
      "inputs": [
        {
          "indexed": false,
          "name": "name",
          "type": "bytes32"
        },
        {
          "indexed": false,
          "name": "walletAddress",
          "type": "address"
        }
      ],
      "name": "LogPlayerWalletAdded",
      "type": "event"
    },
    {
      "anonymous": false,
      "inputs": [
        {
          "indexed": false,
          "name": "name",
          "type": "bytes32"
        },
        {
          "indexed": false,
          "name": "walletAddress",
          "type": "address"
        }
      ],
      "name": "LogPlayerWalletRemoved",
      "type": "event"
    },
    {
      "anonymous": false,
      "inputs": [
        {
          "indexed": false,
          "name": "to",
          "type": "address"
        },
        {
          "indexed": false,
          "name": "amount",
          "type": "uint256"
        }
      ],
      "name": "LogTransfer",
      "type": "event"
    }
  ],
  "bytecode": "0x606060405260405162001c6538038062001c6583398101604052808051820191905050336000806101000a81548173ffffffffffffffffffffffffffffffffffffffff021916908373ffffffffffffffffffffffffffffffffffffffff16021790555080600190805190602001906200007a92919062000082565b505062000131565b828054600181600116156101000203166002900490600052602060002090601f016020900481019282601f10620000c557805160ff1916838001178555620000f6565b82800160010185558215620000f6579182015b82811115620000f5578251825591602001919060010190620000d8565b5b50905062000105919062000109565b5090565b6200012e91905b808211156200012a57600081600090555060010162000110565b5090565b90565b611b2480620001416000396000f300606060405260043610610099576000357c0100000000000000000000000000000000000000000000000000000000900463ffffffff16806335c5b9ac1461009b57806379ff433d146100ec57806382474b1b1461013d57806384da92a7146101cb578063880be2fb146102405780638da5cb5b146102f2578063b44f883c14610347578063db74460f146103cd578063fc5a35f214610427575b005b34156100a657600080fd5b6100d2600480803573ffffffffffffffffffffffffffffffffffffffff169060200190919050506104a0565b604051808215151515815260200191505060405180910390f35b34156100f757600080fd5b610123600480803573ffffffffffffffffffffffffffffffffffffffff1690602001909190505061077c565b604051808215151515815260200191505060405180910390f35b341561014857600080fd5b61015061081e565b6040518080602001828103825283818151815260200191508051906020019080838360005b83811015610190578082015181840152602081019050610175565b50505050905090810190601f1680156101bd5780820380516001836020036101000a031916815260200191505b509250505060405180910390f35b34156101d657600080fd5b610226600480803590602001908201803590602001908080601f016020809104026020016040519081016040528093929190818152602001838380828437820191505050505050919050506108bc565b604051808215151515815260200191505060405180910390f35b341561024b57600080fd5b610277600480803573ffffffffffffffffffffffffffffffffffffffff16906020019091905050610939565b6040518080602001828103825283818151815260200191508051906020019080838360005b838110156102b757808201518184015260208101905061029c565b50505050905090810190601f1680156102e45780820380516001836020036101000a031916815260200191505b509250505060405180910390f35b34156102fd57600080fd5b610305610a41565b604051808273ffffffffffffffffffffffffffffffffffffffff1673ffffffffffffffffffffffffffffffffffffffff16815260200191505060405180910390f35b341561035257600080fd5b61038b60048080356000191690602001909190803573ffffffffffffffffffffffffffffffffffffffff16906020019091905050610a66565b604051808273ffffffffffffffffffffffffffffffffffffffff1673ffffffffffffffffffffffffffffffffffffffff16815260200191505060405180910390f35b34156103d857600080fd5b61040d600480803573ffffffffffffffffffffffffffffffffffffffff16906020019091908035906020019091905050610d5f565b604051808215151515815260200191505060405180910390f35b341561043257600080fd5b61045e600480803573ffffffffffffffffffffffffffffffffffffffff16906020019091905050611088565b604051808273ffffffffffffffffffffffffffffffffffffffff1673ffffffffffffffffffffffffffffffffffffffff16815260200191505060405180910390f35b60008060008060009054906101000a900473ffffffffffffffffffffffffffffffffffffffff1673ffffffffffffffffffffffffffffffffffffffff163373ffffffffffffffffffffffffffffffffffffffff1614151561050057600080fd5b600073ffffffffffffffffffffffffffffffffffffffff16600260008673ffffffffffffffffffffffffffffffffffffffff1673ffffffffffffffffffffffffffffffffffffffff16815260200190815260200160002060009054906101000a900473ffffffffffffffffffffffffffffffffffffffff1673ffffffffffffffffffffffffffffffffffffffff1673ffffffffffffffffffffffffffffffffffffffff16141515156105b157600080fd5b600260008573ffffffffffffffffffffffffffffffffffffffff1673ffffffffffffffffffffffffffffffffffffffff16815260200190815260200160002060009054906101000a900473ffffffffffffffffffffffffffffffffffffffff1691508173ffffffffffffffffffffffffffffffffffffffff166377508b4b6000604051602001526040518163ffffffff167c0100000000000000000000000000000000000000000000000000000000028152600401602060405180830381600087803b151561067f57600080fd5b6102c65a03f1151561069057600080fd5b505050604051805190509050600260008573ffffffffffffffffffffffffffffffffffffffff1673ffffffffffffffffffffffffffffffffffffffff16815260200190815260200160002060006101000a81549073ffffffffffffffffffffffffffffffffffffffff02191690557fb436132d01c58d963df92178ba4d7631c696698ec1512b65f6bb03901b28f63081836040518083600019166000191681526020018273ffffffffffffffffffffffffffffffffffffffff1673ffffffffffffffffffffffffffffffffffffffff1681526020019250505060405180910390a1600192505050919050565b60008060009054906101000a900473ffffffffffffffffffffffffffffffffffffffff1673ffffffffffffffffffffffffffffffffffffffff163373ffffffffffffffffffffffffffffffffffffffff161415156107d957600080fd5b816000806101000a81548173ffffffffffffffffffffffffffffffffffffffff021916908373ffffffffffffffffffffffffffffffffffffffff160217905550919050565b60018054600181600116156101000203166002900480601f0160208091040260200160405190810160405280929190818152602001828054600181600116156101000203166002900480156108b45780601f10610889576101008083540402835291602001916108b4565b820191906000526020600020905b81548152906001019060200180831161089757829003601f168201915b505050505081565b60008060009054906101000a900473ffffffffffffffffffffffffffffffffffffffff1673ffffffffffffffffffffffffffffffffffffffff163373ffffffffffffffffffffffffffffffffffffffff1614151561091957600080fd5b816001908051906020019061092f9291906112a8565b5060019050919050565b610941611328565b600080600260008573ffffffffffffffffffffffffffffffffffffffff1673ffffffffffffffffffffffffffffffffffffffff16815260200190815260200160002060009054906101000a900473ffffffffffffffffffffffffffffffffffffffff1691508173ffffffffffffffffffffffffffffffffffffffff166377508b4b6000604051602001526040518163ffffffff167c0100000000000000000000000000000000000000000000000000000000028152600401602060405180830381600087803b1515610a1257600080fd5b6102c65a03f11515610a2357600080fd5b505050604051805190509050610a38816110bb565b92505050919050565b6000809054906101000a900473ffffffffffffffffffffffffffffffffffffffff1681565b6000806000809054906101000a900473ffffffffffffffffffffffffffffffffffffffff1673ffffffffffffffffffffffffffffffffffffffff163373ffffffffffffffffffffffffffffffffffffffff16141515610ac457600080fd5b600073ffffffffffffffffffffffffffffffffffffffff16600260008573ffffffffffffffffffffffffffffffffffffffff1673ffffffffffffffffffffffffffffffffffffffff16815260200190815260200160002060009054906101000a900473ffffffffffffffffffffffffffffffffffffffff1673ffffffffffffffffffffffffffffffffffffffff1673ffffffffffffffffffffffffffffffffffffffff16141515610b7457600080fd5b8383306000809054906101000a900473ffffffffffffffffffffffffffffffffffffffff16610ba161133c565b8085600019166000191681526020018473ffffffffffffffffffffffffffffffffffffffff1673ffffffffffffffffffffffffffffffffffffffff1681526020018373ffffffffffffffffffffffffffffffffffffffff1673ffffffffffffffffffffffffffffffffffffffff1681526020018273ffffffffffffffffffffffffffffffffffffffff1673ffffffffffffffffffffffffffffffffffffffff168152602001945050505050604051809103906000f0801515610c6257600080fd5b905080600260008573ffffffffffffffffffffffffffffffffffffffff1673ffffffffffffffffffffffffffffffffffffffff16815260200190815260200160002060006101000a81548173ffffffffffffffffffffffffffffffffffffffff021916908373ffffffffffffffffffffffffffffffffffffffff1602179055507f78bfbbd5d76f56beed3b392790a4ce009f349fee3b2883d26a8af533697cfe2b84826040518083600019166000191681526020018273ffffffffffffffffffffffffffffffffffffffff1673ffffffffffffffffffffffffffffffffffffffff1681526020019250505060405180910390a18091505092915050565b60008060009054906101000a900473ffffffffffffffffffffffffffffffffffffffff1673ffffffffffffffffffffffffffffffffffffffff163373ffffffffffffffffffffffffffffffffffffffff16141515610dbc57600080fd5b826000600260008373ffffffffffffffffffffffffffffffffffffffff1673ffffffffffffffffffffffffffffffffffffffff16815260200190815260200160002060009054906101000a900473ffffffffffffffffffffffffffffffffffffffff1673ffffffffffffffffffffffffffffffffffffffff166385f2aef26000604051602001526040518163ffffffff167c0100000000000000000000000000000000000000000000000000000000028152600401602060405180830381600087803b1515610e8a57600080fd5b6102c65a03f11515610e9b57600080fd5b5050506040518051905090503073ffffffffffffffffffffffffffffffffffffffff168173ffffffffffffffffffffffffffffffffffffffff16141515610ee157600080fd5b600084118015610f0857503073ffffffffffffffffffffffffffffffffffffffff16318411155b1515610f1357600080fd5b600260008673ffffffffffffffffffffffffffffffffffffffff1673ffffffffffffffffffffffffffffffffffffffff16815260200190815260200160002060009054906101000a900473ffffffffffffffffffffffffffffffffffffffff1673ffffffffffffffffffffffffffffffffffffffff166108fc859081150290604051600060405180830381858888f193505050501515610fb257600080fd5b7f2ba5dd9653174138784e5d96e6414a4792d581bf8b5622f9a78f2e76d7ee5d1a600260008773ffffffffffffffffffffffffffffffffffffffff1673ffffffffffffffffffffffffffffffffffffffff16815260200190815260200160002060009054906101000a900473ffffffffffffffffffffffffffffffffffffffff1685604051808373ffffffffffffffffffffffffffffffffffffffff1673ffffffffffffffffffffffffffffffffffffffff1681526020018281526020019250505060405180910390a160019250505092915050565b60026020528060005260406000206000915054906101000a900473ffffffffffffffffffffffffffffffffffffffff1681565b6110c3611328565b6110cb61134c565b60008060006110d861134c565b60206040518059106110e75750595b9080825280601f01601f1916602001820160405250945060009350600092505b60208310156111c5578260080260020a876001900402600102915060007f010000000000000000000000000000000000000000000000000000000000000002827effffffffffffffffffffffffffffffffffffffffffffffffffffffffffffff19161415156111b85781858581518110151561117f57fe5b9060200101907effffffffffffffffffffffffffffffffffffffffffffffffffffffffffffff1916908160001a90535083806001019450505b8280600101935050611107565b836040518059106111d35750595b9080825280601f01601f19166020018201604052509050600092505b8383101561129b57848381518110151561120557fe5b9060200101517f010000000000000000000000000000000000000000000000000000000000000090047f010000000000000000000000000000000000000000000000000000000000000002818481518110151561125e57fe5b9060200101907effffffffffffffffffffffffffffffffffffffffffffffffffffffffffffff1916908160001a90535082806001019350506111ef565b8095505050505050919050565b828054600181600116156101000203166002900490600052602060002090601f016020900481019282601f106112e957805160ff1916838001178555611317565b82800160010185558215611317579182015b828111156113165782518255916020019190600101906112fb565b5b5090506113249190611360565b5090565b602060405190810160405280600081525090565b6040516107738061138683390190565b602060405190810160405280600081525090565b61138291905b8082111561137e576000816000905550600101611366565b5090565b905600606060405260405160808061077383398101604052808051906020019091908051906020019091908051906020019091908051906020019091905050336000806101000a81548173ffffffffffffffffffffffffffffffffffffffff021916908373ffffffffffffffffffffffffffffffffffffffff1602179055508360018160001916905550826000806101000a81548173ffffffffffffffffffffffffffffffffffffffff021916908373ffffffffffffffffffffffffffffffffffffffff16021790555081600360006101000a81548173ffffffffffffffffffffffffffffffffffffffff021916908373ffffffffffffffffffffffffffffffffffffffff16021790555080600260006101000a81548173ffffffffffffffffffffffffffffffffffffffff021916908373ffffffffffffffffffffffffffffffffffffffff160217905550505050506106188061015b6000396000f300606060405260043610610083576000357c0100000000000000000000000000000000000000000000000000000000900463ffffffff16806377508b4b1461008557806379ff433d146100b657806381b2d07b1461010757806385f2aef2146101305780638da5cb5b14610185578063a9059cbb146101da578063d5dcbec614610234575b005b341561009057600080fd5b610098610289565b60405180826000191660001916815260200191505060405180910390f35b34156100c157600080fd5b6100ed600480803573ffffffffffffffffffffffffffffffffffffffff1690602001909190505061028f565b604051808215151515815260200191505060405180910390f35b341561011257600080fd5b61011a610331565b6040518082815260200191505060405180910390f35b341561013b57600080fd5b610143610407565b604051808273ffffffffffffffffffffffffffffffffffffffff1673ffffffffffffffffffffffffffffffffffffffff16815260200191505060405180910390f35b341561019057600080fd5b61019861042d565b604051808273ffffffffffffffffffffffffffffffffffffffff1673ffffffffffffffffffffffffffffffffffffffff16815260200191505060405180910390f35b34156101e557600080fd5b61021a600480803573ffffffffffffffffffffffffffffffffffffffff16906020019091908035906020019091905050610452565b604051808215151515815260200191505060405180910390f35b341561023f57600080fd5b6102476105c6565b604051808273ffffffffffffffffffffffffffffffffffffffff1673ffffffffffffffffffffffffffffffffffffffff16815260200191505060405180910390f35b60015481565b60008060009054906101000a900473ffffffffffffffffffffffffffffffffffffffff1673ffffffffffffffffffffffffffffffffffffffff163373ffffffffffffffffffffffffffffffffffffffff161415156102ec57600080fd5b816000806101000a81548173ffffffffffffffffffffffffffffffffffffffff021916908373ffffffffffffffffffffffffffffffffffffffff160217905550919050565b60003373ffffffffffffffffffffffffffffffffffffffff166000809054906101000a900473ffffffffffffffffffffffffffffffffffffffff1673ffffffffffffffffffffffffffffffffffffffff1614806103db57503373ffffffffffffffffffffffffffffffffffffffff16600260009054906101000a900473ffffffffffffffffffffffffffffffffffffffff1673ffffffffffffffffffffffffffffffffffffffff16145b156103ff573073ffffffffffffffffffffffffffffffffffffffff16319050610404565b600080fd5b90565b600360009054906101000a900473ffffffffffffffffffffffffffffffffffffffff1681565b6000809054906101000a900473ffffffffffffffffffffffffffffffffffffffff1681565b60008060009054906101000a900473ffffffffffffffffffffffffffffffffffffffff1673ffffffffffffffffffffffffffffffffffffffff163373ffffffffffffffffffffffffffffffffffffffff161415156104af57600080fd5b600073ffffffffffffffffffffffffffffffffffffffff168373ffffffffffffffffffffffffffffffffffffffff16141515156104eb57600080fd5b3073ffffffffffffffffffffffffffffffffffffffff1631821115151561051157600080fd5b8273ffffffffffffffffffffffffffffffffffffffff166108fc839081150290604051600060405180830381858888f19350505050151561055157600080fd5b7f2ba5dd9653174138784e5d96e6414a4792d581bf8b5622f9a78f2e76d7ee5d1a8383604051808373ffffffffffffffffffffffffffffffffffffffff1673ffffffffffffffffffffffffffffffffffffffff1681526020018281526020019250505060405180910390a16001905092915050565b600260009054906101000a900473ffffffffffffffffffffffffffffffffffffffff16815600a165627a7a723058204bdf40be012e999e314942da3bae0c43a638adcc83436af752007dca2f933eff0029a165627a7a72305820c53cd15cf5f56bf554087c2a05f8be013de825fabb31de12b45fdeb6131ca7ca0029",
  "source": "pragma solidity ^0.4.17;\n\nimport \"./PlayerWallet.sol\";\n\ncontract TeamWallet is BasicWallet {\n    string public teamName;\n    \n    //  ownerAddress => PlayerWallet\n    mapping (address => PlayerWallet) public playerWallets;\n    \n    //  MODIFIERS\n    modifier ourTeamPlayersWalletOnly(address ownerAddress) {\n      address teamAddr = playerWallets[ownerAddress].team();\n      require(teamAddr == address(this));\n      _;\n    }\n    \n    //  EVENTS\n    event LogPlayerWalletAdded(bytes32 name, address walletAddress);\n    event LogPlayerWalletRemoved(bytes32 name, address walletAddress);\n    \n    function TeamWallet(string _teamName) public payable {\n      teamName = _teamName;\n    }\n    \n    function () public payable {}\n    \n    function updateName(string newName) public onlyOwner returns (bool) {\n      teamName = newName;\n      \n      return true;\n    }\n    \n    function addPlayerWallet(bytes32 playerName, address ownerAddress) public onlyOwner returns (address) {\n      require(address(playerWallets[ownerAddress].team) == address(0));\n\n      PlayerWallet playerWallet = new PlayerWallet(playerName, ownerAddress, address(this), owner);\n      playerWallets[ownerAddress] = playerWallet;\n      \n      LogPlayerWalletAdded(playerName, playerWallet);\n      return playerWallet;\n    }\n    \n    function removePlayerWallet(address ownerAddress) public onlyOwner returns (bool) {\n      require(address(playerWallets[ownerAddress].team) != address(0));\n\n      PlayerWallet playerWallet = playerWallets[address(ownerAddress)];\n      bytes32 playerName = playerWallet.playerName();\n\n      delete playerWallets[address(ownerAddress)];\n      \n      LogPlayerWalletRemoved(playerName, address(playerWallet));\n      return true;\n    }\n    \n    function playerWalletName(address ownerAddress) public constant returns(string) {\n      PlayerWallet wallet = playerWallets[ownerAddress];\n      bytes32 name = wallet.playerName();\n      \n      return bytes32ToString(name);\n    }\n    \n    function transferToPlayerWallet(address ownerAddress, uint amount) public \n      onlyOwner \n      ourTeamPlayersWalletOnly(ownerAddress)\n      returns(bool) \n      {\n        require(amount > 0 && amount <= this.balance);\n        \n        playerWallets[ownerAddress].transfer(amount);\n        \n        LogTransfer(address(playerWallets[ownerAddress]), amount);\n        return true;\n    } \n    \n    //  private\n    function bytes32ToString(bytes32 x) private pure returns (string) {\n      bytes memory bytesString = new bytes(32);\n      uint charCount = 0;\n      for (uint j = 0; j < 32; j++) {\n          byte char = byte(bytes32(uint(x) * 2 ** (8 * j)));\n          if (char != 0) {\n              bytesString[charCount] = char;\n              charCount++;\n          }\n      }\n      bytes memory bytesStringTrimmed = new bytes(charCount);\n      for (j = 0; j < charCount; j++) {\n          bytesStringTrimmed[j] = bytesString[j];\n      }\n      return string(bytesStringTrimmed);\n    }\n}",
  "sourcePath": "/Users/vanijatko/Documents/projects/study/ethereum/team_funds_manage/contracts/TeamWallet.sol",
  "compiler": {
    "name": "solc",
    "version": "0.4.18+commit.9cf6e910.Emscripten.clang"
  },
  "schemaVersion": "1.0.1",
  "updatedAt": "2017-12-29T09:47:17.953Z"
}