{
  "contractName": "TeamWallet",
  "abi": [
    {
      "constant": false,
      "inputs": [
        {
          "name": "walletAddress",
          "type": "address"
        }
      ],
      "name": "removePlayerWallet",
      "outputs": [
        {
          "name": "",
          "type": "bool"
        }
      ],
      "payable": false,
      "stateMutability": "nonpayable",
      "type": "function"
    },
    {
      "constant": false,
      "inputs": [
        {
          "name": "newOwner",
          "type": "address"
        }
      ],
      "name": "moveOwnership",
      "outputs": [
        {
          "name": "",
          "type": "bool"
        }
      ],
      "payable": false,
      "stateMutability": "nonpayable",
      "type": "function"
    },
    {
      "constant": true,
      "inputs": [],
      "name": "teamName",
      "outputs": [
        {
          "name": "",
          "type": "string"
        }
      ],
      "payable": false,
      "stateMutability": "view",
      "type": "function"
    },
    {
      "constant": false,
      "inputs": [
        {
          "name": "newName",
          "type": "string"
        }
      ],
      "name": "updateName",
      "outputs": [
        {
          "name": "",
          "type": "bool"
        }
      ],
      "payable": false,
      "stateMutability": "nonpayable",
      "type": "function"
    },
    {
      "constant": true,
      "inputs": [
        {
          "name": "addr",
          "type": "address"
        }
      ],
      "name": "playerWalletName",
      "outputs": [
        {
          "name": "",
          "type": "string"
        }
      ],
      "payable": false,
      "stateMutability": "view",
      "type": "function"
    },
    {
      "constant": true,
      "inputs": [],
      "name": "owner",
      "outputs": [
        {
          "name": "",
          "type": "address"
        }
      ],
      "payable": false,
      "stateMutability": "view",
      "type": "function"
    },
    {
      "constant": false,
      "inputs": [
        {
          "name": "playerName",
          "type": "bytes32"
        },
        {
          "name": "ownerAddress",
          "type": "address"
        }
      ],
      "name": "addPlayerWallet",
      "outputs": [
        {
          "name": "",
          "type": "address"
        }
      ],
      "payable": false,
      "stateMutability": "nonpayable",
      "type": "function"
    },
    {
      "constant": false,
      "inputs": [
        {
          "name": "playerWallet",
          "type": "address"
        },
        {
          "name": "amount",
          "type": "uint256"
        }
      ],
      "name": "transferToPlayerWallet",
      "outputs": [
        {
          "name": "",
          "type": "bool"
        }
      ],
      "payable": false,
      "stateMutability": "nonpayable",
      "type": "function"
    },
    {
      "constant": true,
      "inputs": [
        {
          "name": "",
          "type": "address"
        }
      ],
      "name": "playerWallets",
      "outputs": [
        {
          "name": "",
          "type": "address"
        }
      ],
      "payable": false,
      "stateMutability": "view",
      "type": "function"
    },
    {
      "inputs": [
        {
          "name": "_teamName",
          "type": "string"
        }
      ],
      "payable": true,
      "stateMutability": "payable",
      "type": "constructor"
    },
    {
      "payable": true,
      "stateMutability": "payable",
      "type": "fallback"
    },
    {
      "anonymous": false,
      "inputs": [
        {
          "indexed": false,
          "name": "name",
          "type": "bytes32"
        },
        {
          "indexed": false,
          "name": "walletAddress",
          "type": "address"
        }
      ],
      "name": "LogPlayerWalletAdded",
      "type": "event"
    },
    {
      "anonymous": false,
      "inputs": [
        {
          "indexed": false,
          "name": "name",
          "type": "bytes32"
        },
        {
          "indexed": false,
          "name": "walletAddress",
          "type": "address"
        }
      ],
      "name": "LogPlayerWalletRemoved",
      "type": "event"
    },
    {
      "anonymous": false,
      "inputs": [
        {
          "indexed": false,
          "name": "to",
          "type": "address"
        },
        {
          "indexed": false,
          "name": "amount",
          "type": "uint256"
        }
      ],
      "name": "LogTransfer",
      "type": "event"
    }
  ],
  "bytecode": "0x606060405260405162001b1938038062001b1983398101604052808051820191905050336000806101000a81548173ffffffffffffffffffffffffffffffffffffffff021916908373ffffffffffffffffffffffffffffffffffffffff160217905550806001908051906020019061007892919061007f565b5050610124565b828054600181600116156101000203166002900490600052602060002090601f016020900481019282601f106100c057805160ff19168380011785556100ee565b828001600101855582156100ee579182015b828111156100ed5782518255916020019190600101906100d2565b5b5090506100fb91906100ff565b5090565b61012191905b8082111561011d576000816000905550600101610105565b5090565b90565b6119e580620001346000396000f300606060405260043610610099576000357c0100000000000000000000000000000000000000000000000000000000900463ffffffff16806335c5b9ac1461009b57806379ff433d146100ec57806382474b1b1461013d57806384da92a7146101cb578063880be2fb146102405780638da5cb5b146102f2578063b44f883c14610347578063db74460f146103cd578063fc5a35f214610427575b005b34156100a657600080fd5b6100d2600480803573ffffffffffffffffffffffffffffffffffffffff169060200190919050506104a0565b604051808215151515815260200191505060405180910390f35b34156100f757600080fd5b610123600480803573ffffffffffffffffffffffffffffffffffffffff169060200190919050506106de565b604051808215151515815260200191505060405180910390f35b341561014857600080fd5b610150610780565b6040518080602001828103825283818151815260200191508051906020019080838360005b83811015610190578082015181840152602081019050610175565b50505050905090810190601f1680156101bd5780820380516001836020036101000a031916815260200191505b509250505060405180910390f35b34156101d657600080fd5b610226600480803590602001908201803590602001908080601f0160208091040260200160405190810160405280939291908181526020018383808284378201915050505050509190505061081e565b604051808215151515815260200191505060405180910390f35b341561024b57600080fd5b610277600480803573ffffffffffffffffffffffffffffffffffffffff1690602001909190505061089b565b6040518080602001828103825283818151815260200191508051906020019080838360005b838110156102b757808201518184015260208101905061029c565b50505050905090810190601f1680156102e45780820380516001836020036101000a031916815260200191505b509250505060405180910390f35b34156102fd57600080fd5b6103056109a3565b604051808273ffffffffffffffffffffffffffffffffffffffff1673ffffffffffffffffffffffffffffffffffffffff16815260200191505060405180910390f35b341561035257600080fd5b61038b60048080356000191690602001909190803573ffffffffffffffffffffffffffffffffffffffff169060200190919050506109c8565b604051808273ffffffffffffffffffffffffffffffffffffffff1673ffffffffffffffffffffffffffffffffffffffff16815260200191505060405180910390f35b34156103d857600080fd5b61040d600480803573ffffffffffffffffffffffffffffffffffffffff16906020019091908035906020019091905050610c11565b604051808215151515815260200191505060405180910390f35b341561043257600080fd5b61045e600480803573ffffffffffffffffffffffffffffffffffffffff16906020019091905050610e79565b604051808273ffffffffffffffffffffffffffffffffffffffff1673ffffffffffffffffffffffffffffffffffffffff16815260200191505060405180910390f35b60008060008060009054906101000a900473ffffffffffffffffffffffffffffffffffffffff1673ffffffffffffffffffffffffffffffffffffffff163373ffffffffffffffffffffffffffffffffffffffff1614151561050057600080fd5b600260008573ffffffffffffffffffffffffffffffffffffffff1673ffffffffffffffffffffffffffffffffffffffff16815260200190815260200160002060009054906101000a900473ffffffffffffffffffffffffffffffffffffffff1691508173ffffffffffffffffffffffffffffffffffffffff1663a69c65976000604051602001526040518163ffffffff167c0100000000000000000000000000000000000000000000000000000000028152600401602060405180830381600087803b15156105ce57600080fd5b6102c65a03f115156105df57600080fd5b5050506040518051905090506000602060ff161115156105fe57600080fd5b600260008573ffffffffffffffffffffffffffffffffffffffff1673ffffffffffffffffffffffffffffffffffffffff16815260200190815260200160002060006101000a81549073ffffffffffffffffffffffffffffffffffffffff02191690557fb436132d01c58d963df92178ba4d7631c696698ec1512b65f6bb03901b28f63081856040518083600019166000191681526020018273ffffffffffffffffffffffffffffffffffffffff1673ffffffffffffffffffffffffffffffffffffffff1681526020019250505060405180910390a1600192505050919050565b60008060009054906101000a900473ffffffffffffffffffffffffffffffffffffffff1673ffffffffffffffffffffffffffffffffffffffff163373ffffffffffffffffffffffffffffffffffffffff1614151561073b57600080fd5b816000806101000a81548173ffffffffffffffffffffffffffffffffffffffff021916908373ffffffffffffffffffffffffffffffffffffffff160217905550919050565b60018054600181600116156101000203166002900480601f0160208091040260200160405190810160405280929190818152602001828054600181600116156101000203166002900480156108165780601f106107eb57610100808354040283529160200191610816565b820191906000526020600020905b8154815290600101906020018083116107f957829003601f168201915b505050505081565b60008060009054906101000a900473ffffffffffffffffffffffffffffffffffffffff1673ffffffffffffffffffffffffffffffffffffffff163373ffffffffffffffffffffffffffffffffffffffff1614151561087b57600080fd5b8160019080519060200190610891929190611099565b5060019050919050565b6108a3611119565b600080600260008573ffffffffffffffffffffffffffffffffffffffff1673ffffffffffffffffffffffffffffffffffffffff16815260200190815260200160002060009054906101000a900473ffffffffffffffffffffffffffffffffffffffff1691508173ffffffffffffffffffffffffffffffffffffffff1663a69c65976000604051602001526040518163ffffffff167c0100000000000000000000000000000000000000000000000000000000028152600401602060405180830381600087803b151561097457600080fd5b6102c65a03f1151561098557600080fd5b50505060405180519050905061099a81610eac565b92505050919050565b6000809054906101000a900473ffffffffffffffffffffffffffffffffffffffff1681565b6000806000809054906101000a900473ffffffffffffffffffffffffffffffffffffffff1673ffffffffffffffffffffffffffffffffffffffff163373ffffffffffffffffffffffffffffffffffffffff16141515610a2657600080fd5b8383306000809054906101000a900473ffffffffffffffffffffffffffffffffffffffff16610a5361112d565b8085600019166000191681526020018473ffffffffffffffffffffffffffffffffffffffff1673ffffffffffffffffffffffffffffffffffffffff1681526020018373ffffffffffffffffffffffffffffffffffffffff1673ffffffffffffffffffffffffffffffffffffffff1681526020018273ffffffffffffffffffffffffffffffffffffffff1673ffffffffffffffffffffffffffffffffffffffff168152602001945050505050604051809103906000f0801515610b1457600080fd5b905080600260008373ffffffffffffffffffffffffffffffffffffffff1673ffffffffffffffffffffffffffffffffffffffff16815260200190815260200160002060006101000a81548173ffffffffffffffffffffffffffffffffffffffff021916908373ffffffffffffffffffffffffffffffffffffffff1602179055507f78bfbbd5d76f56beed3b392790a4ce009f349fee3b2883d26a8af533697cfe2b84826040518083600019166000191681526020018273ffffffffffffffffffffffffffffffffffffffff1673ffffffffffffffffffffffffffffffffffffffff1681526020019250505060405180910390a18091505092915050565b60008060009054906101000a900473ffffffffffffffffffffffffffffffffffffffff1673ffffffffffffffffffffffffffffffffffffffff163373ffffffffffffffffffffffffffffffffffffffff16141515610c6e57600080fd5b823073ffffffffffffffffffffffffffffffffffffffff16600260008373ffffffffffffffffffffffffffffffffffffffff1673ffffffffffffffffffffffffffffffffffffffff16815260200190815260200160002060009054906101000a900473ffffffffffffffffffffffffffffffffffffffff1673ffffffffffffffffffffffffffffffffffffffff16638bce6edd6000604051602001526040518163ffffffff167c0100000000000000000000000000000000000000000000000000000000028152600401602060405180830381600087803b1515610d5157600080fd5b6102c65a03f11515610d6257600080fd5b5050506040518051905073ffffffffffffffffffffffffffffffffffffffff16141515610d8e57600080fd5b600083111515610d9d57600080fd5b3073ffffffffffffffffffffffffffffffffffffffff16318311151515610dc357600080fd5b8373ffffffffffffffffffffffffffffffffffffffff166108fc849081150290604051600060405180830381858888f193505050501515610e0357600080fd5b7f2ba5dd9653174138784e5d96e6414a4792d581bf8b5622f9a78f2e76d7ee5d1a8484604051808373ffffffffffffffffffffffffffffffffffffffff1673ffffffffffffffffffffffffffffffffffffffff1681526020018281526020019250505060405180910390a1600191505092915050565b60026020528060005260406000206000915054906101000a900473ffffffffffffffffffffffffffffffffffffffff1681565b610eb4611119565b610ebc61113d565b6000806000610ec961113d565b6020604051805910610ed85750595b9080825280601f01601f1916602001820160405250945060009350600092505b6020831015610fb6578260080260020a876001900402600102915060007f010000000000000000000000000000000000000000000000000000000000000002827effffffffffffffffffffffffffffffffffffffffffffffffffffffffffffff1916141515610fa957818585815181101515610f7057fe5b9060200101907effffffffffffffffffffffffffffffffffffffffffffffffffffffffffffff1916908160001a90535083806001019450505b8280600101935050610ef8565b83604051805910610fc45750595b9080825280601f01601f19166020018201604052509050600092505b8383101561108c578483815181101515610ff657fe5b9060200101517f010000000000000000000000000000000000000000000000000000000000000090047f010000000000000000000000000000000000000000000000000000000000000002818481518110151561104f57fe5b9060200101907effffffffffffffffffffffffffffffffffffffffffffffffffffffffffffff1916908160001a9053508280600101935050610fe0565b8095505050505050919050565b828054600181600116156101000203166002900490600052602060002090601f016020900481019282601f106110da57805160ff1916838001178555611108565b82800160010185558215611108579182015b828111156111075782518255916020019190600101906110ec565b5b5090506111159190611151565b5090565b602060405190810160405280600081525090565b6040516108438061117783390190565b602060405190810160405280600081525090565b61117391905b8082111561116f576000816000905550600101611157565b5090565b905600606060405260405160808061084383398101604052808051906020019091908051906020019091908051906020019091908051906020019091905050336000806101000a81548173ffffffffffffffffffffffffffffffffffffffff021916908373ffffffffffffffffffffffffffffffffffffffff1602179055508360018160001916905550826000806101000a81548173ffffffffffffffffffffffffffffffffffffffff021916908373ffffffffffffffffffffffffffffffffffffffff16021790555081600360006101000a81548173ffffffffffffffffffffffffffffffffffffffff021916908373ffffffffffffffffffffffffffffffffffffffff16021790555080600260006101000a81548173ffffffffffffffffffffffffffffffffffffffff021916908373ffffffffffffffffffffffffffffffffffffffff160217905550505050506106e88061015b6000396000f300606060405260043610610099576000357c0100000000000000000000000000000000000000000000000000000000900463ffffffff16806377508b4b1461009b57806379ff433d146100cc57806381b2d07b1461011d57806385f2aef2146101465780638bce6edd1461019b5780638da5cb5b146101f0578063a69c659714610245578063a9059cbb14610276578063d5dcbec6146102d0575b005b34156100a657600080fd5b6100ae610325565b60405180826000191660001916815260200191505060405180910390f35b34156100d757600080fd5b610103600480803573ffffffffffffffffffffffffffffffffffffffff1690602001909190505061032b565b604051808215151515815260200191505060405180910390f35b341561012857600080fd5b6101306103cd565b6040518082815260200191505060405180910390f35b341561015157600080fd5b6101596104a3565b604051808273ffffffffffffffffffffffffffffffffffffffff1673ffffffffffffffffffffffffffffffffffffffff16815260200191505060405180910390f35b34156101a657600080fd5b6101ae6104c9565b604051808273ffffffffffffffffffffffffffffffffffffffff1673ffffffffffffffffffffffffffffffffffffffff16815260200191505060405180910390f35b34156101fb57600080fd5b6102036104f3565b604051808273ffffffffffffffffffffffffffffffffffffffff1673ffffffffffffffffffffffffffffffffffffffff16815260200191505060405180910390f35b341561025057600080fd5b610258610518565b60405180826000191660001916815260200191505060405180910390f35b341561028157600080fd5b6102b6600480803573ffffffffffffffffffffffffffffffffffffffff16906020019091908035906020019091905050610522565b604051808215151515815260200191505060405180910390f35b34156102db57600080fd5b6102e3610696565b604051808273ffffffffffffffffffffffffffffffffffffffff1673ffffffffffffffffffffffffffffffffffffffff16815260200191505060405180910390f35b60015481565b60008060009054906101000a900473ffffffffffffffffffffffffffffffffffffffff1673ffffffffffffffffffffffffffffffffffffffff163373ffffffffffffffffffffffffffffffffffffffff1614151561038857600080fd5b816000806101000a81548173ffffffffffffffffffffffffffffffffffffffff021916908373ffffffffffffffffffffffffffffffffffffffff160217905550919050565b60003373ffffffffffffffffffffffffffffffffffffffff166000809054906101000a900473ffffffffffffffffffffffffffffffffffffffff1673ffffffffffffffffffffffffffffffffffffffff16148061047757503373ffffffffffffffffffffffffffffffffffffffff16600260009054906101000a900473ffffffffffffffffffffffffffffffffffffffff1673ffffffffffffffffffffffffffffffffffffffff16145b1561049b573073ffffffffffffffffffffffffffffffffffffffff163190506104a0565b600080fd5b90565b600360009054906101000a900473ffffffffffffffffffffffffffffffffffffffff1681565b6000600360009054906101000a900473ffffffffffffffffffffffffffffffffffffffff16905090565b6000809054906101000a900473ffffffffffffffffffffffffffffffffffffffff1681565b6000600154905090565b60008060009054906101000a900473ffffffffffffffffffffffffffffffffffffffff1673ffffffffffffffffffffffffffffffffffffffff163373ffffffffffffffffffffffffffffffffffffffff1614151561057f57600080fd5b600073ffffffffffffffffffffffffffffffffffffffff168373ffffffffffffffffffffffffffffffffffffffff16141515156105bb57600080fd5b3073ffffffffffffffffffffffffffffffffffffffff163182111515156105e157600080fd5b8273ffffffffffffffffffffffffffffffffffffffff166108fc839081150290604051600060405180830381858888f19350505050151561062157600080fd5b7f2ba5dd9653174138784e5d96e6414a4792d581bf8b5622f9a78f2e76d7ee5d1a8383604051808373ffffffffffffffffffffffffffffffffffffffff1673ffffffffffffffffffffffffffffffffffffffff1681526020018281526020019250505060405180910390a16001905092915050565b600260009054906101000a900473ffffffffffffffffffffffffffffffffffffffff16815600a165627a7a72305820b05a68de602e19aa19a82d3d1e9784f802a71cfcee90dff10c8689be3fba213f0029a165627a7a723058204546d9a0cad34e07a45b67211744c920a834a70ccaef934e10b9107101e8cb180029",
  "source": "pragma solidity ^0.4.17;\n\nimport \"./PlayerWallet.sol\";\n\ncontract TeamWallet is BasicWallet {\n    string public teamName;\n    \n    mapping (address => PlayerWallet) public playerWallets;\n    \n    //  MODIFIERS\n    modifier ourTeamPlayersWalletOnly(address playerWallet) {\n      require(playerWallets[playerWallet].getTeam() == address(this));\n      _;\n    }\n    \n    //  EVENTS\n    event LogPlayerWalletAdded(bytes32 name, address walletAddress);\n    event LogPlayerWalletRemoved(bytes32 name, address walletAddress);\n    \n    function TeamWallet(string _teamName) public payable {\n      teamName = _teamName;\n    }\n    \n    function () public payable {}\n    \n    function updateName(string newName) public onlyOwner returns (bool) {\n      teamName = newName;\n      \n      return true;\n    }\n    \n    function addPlayerWallet(bytes32 playerName, address ownerAddress) public onlyOwner returns (address) {\n      PlayerWallet playerWallet = new PlayerWallet(playerName, ownerAddress, this, owner);\n      playerWallets[address(playerWallet)] = playerWallet;\n      \n      LogPlayerWalletAdded(playerName, playerWallet);\n      return playerWallet;\n    }\n    \n    function removePlayerWallet(address walletAddress) public onlyOwner returns (bool) {\n      PlayerWallet player = playerWallets[address(walletAddress)];\n      bytes32 playerName = player.getPlayerName();\n      require(playerName.length > 0);\n\n      delete playerWallets[address(walletAddress)];\n      \n      LogPlayerWalletRemoved(playerName, walletAddress);\n      return true;\n    }\n    \n    function playerWalletName(address addr) public constant returns(string) {\n      PlayerWallet wallet = playerWallets[addr];\n      bytes32 name = wallet.getPlayerName();\n      \n      return bytes32ToString(name);\n    }\n    \n    function transferToPlayerWallet(address playerWallet, uint amount) public \n      onlyOwner \n      ourTeamPlayersWalletOnly(playerWallet) returns(bool) \n      {\n        require(amount > 0);\n        require(amount <= this.balance);\n        \n        playerWallet.transfer(amount);\n        \n        LogTransfer(playerWallet, amount);\n        return true;\n    } \n    \n    //  private\n    function bytes32ToString(bytes32 x) private pure returns (string) {\n      bytes memory bytesString = new bytes(32);\n      uint charCount = 0;\n      for (uint j = 0; j < 32; j++) {\n          byte char = byte(bytes32(uint(x) * 2 ** (8 * j)));\n          if (char != 0) {\n              bytesString[charCount] = char;\n              charCount++;\n          }\n      }\n      bytes memory bytesStringTrimmed = new bytes(charCount);\n      for (j = 0; j < charCount; j++) {\n          bytesStringTrimmed[j] = bytesString[j];\n      }\n      return string(bytesStringTrimmed);\n    }\n}",
  "sourcePath": "/Users/vanijatko/Documents/projects/study/ethereum/team_funds_manage/contracts/TeamWallet.sol",
  "compiler": {
    "name": "solc",
    "version": "0.4.18+commit.9cf6e910.Emscripten.clang"
  },
  "schemaVersion": "1.0.1",
  "updatedAt": "2017-12-15T14:45:18.270Z"
}